{
    "_format": "hh-sol-artifact-1",
    "contractName": "Web3Mint",
    "sourceName": "contracts/Web3Mint.sol",
    "abi": [
        {
            "inputs": [],
            "stateMutability": "nonpayable",
            "type": "constructor"
        },
        {
            "anonymous": false,
            "inputs": [
                {
                    "indexed": true,
                    "internalType": "address",
                    "name": "owner",
                    "type": "address"
                },
                {
                    "indexed": true,
                    "internalType": "address",
                    "name": "approved",
                    "type": "address"
                },
                {
                    "indexed": true,
                    "internalType": "uint256",
                    "name": "tokenId",
                    "type": "uint256"
                }
            ],
            "name": "Approval",
            "type": "event"
        },
        {
            "anonymous": false,
            "inputs": [
                {
                    "indexed": true,
                    "internalType": "address",
                    "name": "owner",
                    "type": "address"
                },
                {
                    "indexed": true,
                    "internalType": "address",
                    "name": "operator",
                    "type": "address"
                },
                {
                    "indexed": false,
                    "internalType": "bool",
                    "name": "approved",
                    "type": "bool"
                }
            ],
            "name": "ApprovalForAll",
            "type": "event"
        },
        {
            "anonymous": false,
            "inputs": [
                {
                    "indexed": true,
                    "internalType": "address",
                    "name": "from",
                    "type": "address"
                },
                {
                    "indexed": true,
                    "internalType": "address",
                    "name": "to",
                    "type": "address"
                },
                {
                    "indexed": true,
                    "internalType": "uint256",
                    "name": "tokenId",
                    "type": "uint256"
                }
            ],
            "name": "Transfer",
            "type": "event"
        },
        {
            "inputs": [
                {
                    "internalType": "address",
                    "name": "to",
                    "type": "address"
                },
                {
                    "internalType": "uint256",
                    "name": "tokenId",
                    "type": "uint256"
                }
            ],
            "name": "approve",
            "outputs": [],
            "stateMutability": "nonpayable",
            "type": "function"
        },
        {
            "inputs": [
                {
                    "internalType": "address",
                    "name": "owner",
                    "type": "address"
                }
            ],
            "name": "balanceOf",
            "outputs": [
                {
                    "internalType": "uint256",
                    "name": "",
                    "type": "uint256"
                }
            ],
            "stateMutability": "view",
            "type": "function"
        },
        {
            "inputs": [
                {
                    "internalType": "uint256",
                    "name": "tokenId",
                    "type": "uint256"
                }
            ],
            "name": "getApproved",
            "outputs": [
                {
                    "internalType": "address",
                    "name": "",
                    "type": "address"
                }
            ],
            "stateMutability": "view",
            "type": "function"
        },
        {
            "inputs": [
                {
                    "internalType": "address",
                    "name": "owner",
                    "type": "address"
                },
                {
                    "internalType": "address",
                    "name": "operator",
                    "type": "address"
                }
            ],
            "name": "isApprovedForAll",
            "outputs": [
                {
                    "internalType": "bool",
                    "name": "",
                    "type": "bool"
                }
            ],
            "stateMutability": "view",
            "type": "function"
        },
        {
            "inputs": [
                {
                    "internalType": "string",
                    "name": "name",
                    "type": "string"
                },
                {
                    "internalType": "string",
                    "name": "description",
                    "type": "string"
                },
                {
                    "internalType": "string",
                    "name": "imageURI",
                    "type": "string"
                },
                {
                    "internalType": "string",
                    "name": "seed",
                    "type": "string"
                },
                {
                    "internalType": "string",
                    "name": "height",
                    "type": "string"
                },
                {
                    "internalType": "string",
                    "name": "width",
                    "type": "string"
                },
                {
                    "internalType": "string",
                    "name": "guidance_scale",
                    "type": "string"
                },
                {
                    "internalType": "string",
                    "name": "steps",
                    "type": "string"
                }
            ],
            "name": "mintIpfsNFT",
            "outputs": [],
            "stateMutability": "nonpayable",
            "type": "function"
        },
        {
            "inputs": [],
            "name": "name",
            "outputs": [
                {
                    "internalType": "string",
                    "name": "",
                    "type": "string"
                }
            ],
            "stateMutability": "view",
            "type": "function"
        },
        {
            "inputs": [
                {
                    "internalType": "uint256",
                    "name": "tokenId",
                    "type": "uint256"
                }
            ],
            "name": "ownerOf",
            "outputs": [
                {
                    "internalType": "address",
                    "name": "",
                    "type": "address"
                }
            ],
            "stateMutability": "view",
            "type": "function"
        },
        {
            "inputs": [
                {
                    "internalType": "address",
                    "name": "from",
                    "type": "address"
                },
                {
                    "internalType": "address",
                    "name": "to",
                    "type": "address"
                },
                {
                    "internalType": "uint256",
                    "name": "tokenId",
                    "type": "uint256"
                }
            ],
            "name": "safeTransferFrom",
            "outputs": [],
            "stateMutability": "nonpayable",
            "type": "function"
        },
        {
            "inputs": [
                {
                    "internalType": "address",
                    "name": "from",
                    "type": "address"
                },
                {
                    "internalType": "address",
                    "name": "to",
                    "type": "address"
                },
                {
                    "internalType": "uint256",
                    "name": "tokenId",
                    "type": "uint256"
                },
                {
                    "internalType": "bytes",
                    "name": "data",
                    "type": "bytes"
                }
            ],
            "name": "safeTransferFrom",
            "outputs": [],
            "stateMutability": "nonpayable",
            "type": "function"
        },
        {
            "inputs": [
                {
                    "internalType": "address",
                    "name": "operator",
                    "type": "address"
                },
                {
                    "internalType": "bool",
                    "name": "approved",
                    "type": "bool"
                }
            ],
            "name": "setApprovalForAll",
            "outputs": [],
            "stateMutability": "nonpayable",
            "type": "function"
        },
        {
            "inputs": [
                {
                    "internalType": "bytes4",
                    "name": "interfaceId",
                    "type": "bytes4"
                }
            ],
            "name": "supportsInterface",
            "outputs": [
                {
                    "internalType": "bool",
                    "name": "",
                    "type": "bool"
                }
            ],
            "stateMutability": "view",
            "type": "function"
        },
        {
            "inputs": [],
            "name": "symbol",
            "outputs": [
                {
                    "internalType": "string",
                    "name": "",
                    "type": "string"
                }
            ],
            "stateMutability": "view",
            "type": "function"
        },
        {
            "inputs": [
                {
                    "internalType": "uint256",
                    "name": "_tokenId",
                    "type": "uint256"
                }
            ],
            "name": "tokenURI",
            "outputs": [
                {
                    "internalType": "string",
                    "name": "",
                    "type": "string"
                }
            ],
            "stateMutability": "view",
            "type": "function"
        },
        {
            "inputs": [
                {
                    "internalType": "address",
                    "name": "from",
                    "type": "address"
                },
                {
                    "internalType": "address",
                    "name": "to",
                    "type": "address"
                },
                {
                    "internalType": "uint256",
                    "name": "tokenId",
                    "type": "uint256"
                }
            ],
            "name": "transferFrom",
            "outputs": [],
            "stateMutability": "nonpayable",
            "type": "function"
        }
    ],
    "bytecode": "0x60806040523480156200001157600080fd5b506040518060400160405280601381526020017f50726f6d707457697a61726473274775696c64000000000000000000000000008152506040518060400160405280600381526020017f5057470000000000000000000000000000000000000000000000000000000000815250816000908051906020019062000096929190620001cf565b508060019080519060200190620000af929190620001cf565b505050620000fd6040518060400160405280601881526020017f54686973206973206d79204e465420636f6e74726163742e00000000000000008152506200010360201b62000c801760201c565b620003ac565b620001a3816040516024016200011a919062000323565b6040516020818303038152906040527f41304fac000000000000000000000000000000000000000000000000000000007bffffffffffffffffffffffffffffffffffffffffffffffffffffffff19166020820180517bffffffffffffffffffffffffffffffffffffffffffffffffffffffff8381831617835250505050620001a660201b60201c565b50565b60008151905060006a636f6e736f6c652e6c6f679050602083016000808483855afa5050505050565b828054620001dd9062000376565b90600052602060002090601f0160209004810192826200020157600085556200024d565b82601f106200021c57805160ff19168380011785556200024d565b828001600101855582156200024d579182015b828111156200024c5782518255916020019190600101906200022f565b5b5090506200025c919062000260565b5090565b5b808211156200027b57600081600090555060010162000261565b5090565b600081519050919050565b600082825260208201905092915050565b60005b83811015620002bb5780820151818401526020810190506200029e565b83811115620002cb576000848401525b50505050565b6000601f19601f8301169050919050565b6000620002ef826200027f565b620002fb81856200028a565b93506200030d8185602086016200029b565b6200031881620002d1565b840191505092915050565b600060208201905081810360008301526200033f8184620002e2565b905092915050565b7f4e487b7100000000000000000000000000000000000000000000000000000000600052602260045260246000fd5b600060028204905060018216806200038f57607f821691505b60208210811415620003a657620003a562000347565b5b50919050565b61351c80620003bc6000396000f3fe608060405234801561001057600080fd5b50600436106100ea5760003560e01c806370a082311161008c578063b88d4fde11610066578063b88d4fde1461025b578063c87b56dd14610277578063d3b553be146102a7578063e985e9c5146102c3576100ea565b806370a08231146101f157806395d89b4114610221578063a22cb4651461023f576100ea565b8063095ea7b3116100c8578063095ea7b31461016d57806323b872dd1461018957806342842e0e146101a55780636352211e146101c1576100ea565b806301ffc9a7146100ef57806306fdde031461011f578063081812fc1461013d575b600080fd5b61010960048036038101906101049190611d5a565b6102f3565b6040516101169190611da2565b60405180910390f35b6101276103d5565b6040516101349190611e56565b60405180910390f35b61015760048036038101906101529190611eae565b610467565b6040516101649190611f1c565b60405180910390f35b61018760048036038101906101829190611f63565b6104ad565b005b6101a3600480360381019061019e9190611fa3565b6105c5565b005b6101bf60048036038101906101ba9190611fa3565b610625565b005b6101db60048036038101906101d69190611eae565b610645565b6040516101e89190611f1c565b60405180910390f35b61020b60048036038101906102069190611ff6565b6106f7565b6040516102189190612032565b60405180910390f35b6102296107af565b6040516102369190611e56565b60405180910390f35b61025960048036038101906102549190612079565b610841565b005b610275600480360381019061027091906121ee565b610857565b005b610291600480360381019061028c9190611eae565b6108b9565b60405161029e9190611e56565b60405180910390f35b6102c160048036038101906102bc9190612312565b610a4d565b005b6102dd60048036038101906102d891906124a8565b610bec565b6040516102ea9190611da2565b60405180910390f35b60007f80ac58cd000000000000000000000000000000000000000000000000000000007bffffffffffffffffffffffffffffffffffffffffffffffffffffffff1916827bffffffffffffffffffffffffffffffffffffffffffffffffffffffff191614806103be57507f5b5e139f000000000000000000000000000000000000000000000000000000007bffffffffffffffffffffffffffffffffffffffffffffffffffffffff1916827bffffffffffffffffffffffffffffffffffffffffffffffffffffffff1916145b806103ce57506103cd82610d19565b5b9050919050565b6060600080546103e490612517565b80601f016020809104026020016040519081016040528092919081815260200182805461041090612517565b801561045d5780601f106104325761010080835404028352916020019161045d565b820191906000526020600020905b81548152906001019060200180831161044057829003601f168201915b5050505050905090565b600061047282610d83565b6004600083815260200190815260200160002060009054906101000a900473ffffffffffffffffffffffffffffffffffffffff169050919050565b60006104b882610645565b90508073ffffffffffffffffffffffffffffffffffffffff168373ffffffffffffffffffffffffffffffffffffffff161415610529576040517f08c379a0000000000000000000000000000000000000000000000000000000008152600401610520906125bb565b60405180910390fd5b8073ffffffffffffffffffffffffffffffffffffffff16610548610dce565b73ffffffffffffffffffffffffffffffffffffffff161480610577575061057681610571610dce565b610bec565b5b6105b6576040517f08c379a00000000000000000000000000000000000000000000000000000000081526004016105ad9061264d565b60405180910390fd5b6105c08383610dd6565b505050565b6105d66105d0610dce565b82610e8f565b610615576040517f08c379a000000000000000000000000000000000000000000000000000000000815260040161060c906126df565b60405180910390fd5b610620838383610f24565b505050565b61064083838360405180602001604052806000815250610857565b505050565b6000806002600084815260200190815260200160002060009054906101000a900473ffffffffffffffffffffffffffffffffffffffff169050600073ffffffffffffffffffffffffffffffffffffffff168173ffffffffffffffffffffffffffffffffffffffff1614156106ee576040517f08c379a00000000000000000000000000000000000000000000000000000000081526004016106e59061274b565b60405180910390fd5b80915050919050565b60008073ffffffffffffffffffffffffffffffffffffffff168273ffffffffffffffffffffffffffffffffffffffff161415610768576040517f08c379a000000000000000000000000000000000000000000000000000000000815260040161075f906127dd565b60405180910390fd5b600360008373ffffffffffffffffffffffffffffffffffffffff1673ffffffffffffffffffffffffffffffffffffffff168152602001908152602001600020549050919050565b6060600180546107be90612517565b80601f01602080910402602001604051908101604052809291908181526020018280546107ea90612517565b80156108375780601f1061080c57610100808354040283529160200191610837565b820191906000526020600020905b81548152906001019060200180831161081a57829003601f168201915b5050505050905090565b61085361084c610dce565b838361118b565b5050565b610868610862610dce565b83610e8f565b6108a7576040517f08c379a000000000000000000000000000000000000000000000000000000000815260040161089e906126df565b60405180910390fd5b6108b3848484846112f8565b50505050565b60606000610a1d600684815481106108d4576108d36127fd565b5b90600052602060002090600802016000016108ee85611354565b60068681548110610902576109016127fd565b5b906000526020600020906008020160020160068781548110610927576109266127fd565b5b90600052602060002090600802016001016006888154811061094c5761094b6127fd565b5b906000526020600020906008020160030160068981548110610971576109706127fd565b5b906000526020600020906008020160040160068a81548110610996576109956127fd565b5b906000526020600020906008020160050160068b815481106109bb576109ba6127fd565b5b906000526020600020906008020160060160068c815481106109e0576109df6127fd565b5b9060005260206000209060080201600701604051602001610a0999989796959493929190612cb2565b6040516020818303038152906040526114b5565b9050600081604051602001610a329190612deb565b60405160208183030381529060405290508092505050919050565b6000610a59600761164d565b9050610a65338261165b565b60066040518061010001604052808b81526020018981526020018a81526020018881526020018781526020018681526020018581526020018481525090806001815401808255809150506001900390600052602060002090600802016000909190919091506000820151816000019080519060200190610ae6929190611c4b565b506020820151816001019080519060200190610b03929190611c4b565b506040820151816002019080519060200190610b20929190611c4b565b506060820151816003019080519060200190610b3d929190611c4b565b506080820151816004019080519060200190610b5a929190611c4b565b5060a0820151816005019080519060200190610b77929190611c4b565b5060c0820151816006019080519060200190610b94929190611c4b565b5060e0820151816007019080519060200190610bb1929190611c4b565b505050610bd7604051806060016040528060258152602001613482602591398233611679565b610be16007611718565b505050505050505050565b6000600560008473ffffffffffffffffffffffffffffffffffffffff1673ffffffffffffffffffffffffffffffffffffffff16815260200190815260200160002060008373ffffffffffffffffffffffffffffffffffffffff1673ffffffffffffffffffffffffffffffffffffffff16815260200190815260200160002060009054906101000a900460ff16905092915050565b610d1681604051602401610c949190611e56565b6040516020818303038152906040527f41304fac000000000000000000000000000000000000000000000000000000007bffffffffffffffffffffffffffffffffffffffffffffffffffffffff19166020820180517bffffffffffffffffffffffffffffffffffffffffffffffffffffffff838183161783525050505061172e565b50565b60007f01ffc9a7000000000000000000000000000000000000000000000000000000007bffffffffffffffffffffffffffffffffffffffffffffffffffffffff1916827bffffffffffffffffffffffffffffffffffffffffffffffffffffffff1916149050919050565b610d8c81611757565b610dcb576040517f08c379a0000000000000000000000000000000000000000000000000000000008152600401610dc29061274b565b60405180910390fd5b50565b600033905090565b816004600083815260200190815260200160002060006101000a81548173ffffffffffffffffffffffffffffffffffffffff021916908373ffffffffffffffffffffffffffffffffffffffff160217905550808273ffffffffffffffffffffffffffffffffffffffff16610e4983610645565b73ffffffffffffffffffffffffffffffffffffffff167f8c5be1e5ebec7d5bd14f71427d1e84f3dd0314c0f7b2291e5b200ac8c7c3b92560405160405180910390a45050565b600080610e9b83610645565b90508073ffffffffffffffffffffffffffffffffffffffff168473ffffffffffffffffffffffffffffffffffffffff161480610edd5750610edc8185610bec565b5b80610f1b57508373ffffffffffffffffffffffffffffffffffffffff16610f0384610467565b73ffffffffffffffffffffffffffffffffffffffff16145b91505092915050565b8273ffffffffffffffffffffffffffffffffffffffff16610f4482610645565b73ffffffffffffffffffffffffffffffffffffffff1614610f9a576040517f08c379a0000000000000000000000000000000000000000000000000000000008152600401610f9190612e7f565b60405180910390fd5b600073ffffffffffffffffffffffffffffffffffffffff168273ffffffffffffffffffffffffffffffffffffffff16141561100a576040517f08c379a000000000000000000000000000000000000000000000000000000000815260040161100190612f11565b60405180910390fd5b6110158383836117c3565b611020600082610dd6565b6001600360008573ffffffffffffffffffffffffffffffffffffffff1673ffffffffffffffffffffffffffffffffffffffff16815260200190815260200160002060008282546110709190612f60565b925050819055506001600360008473ffffffffffffffffffffffffffffffffffffffff1673ffffffffffffffffffffffffffffffffffffffff16815260200190815260200160002060008282546110c79190612f94565b92505081905550816002600083815260200190815260200160002060006101000a81548173ffffffffffffffffffffffffffffffffffffffff021916908373ffffffffffffffffffffffffffffffffffffffff160217905550808273ffffffffffffffffffffffffffffffffffffffff168473ffffffffffffffffffffffffffffffffffffffff167fddf252ad1be2c89b69c2b068fc378daa952ba7f163c4a11628f55a4df523b3ef60405160405180910390a4611186838383611842565b505050565b8173ffffffffffffffffffffffffffffffffffffffff168373ffffffffffffffffffffffffffffffffffffffff1614156111fa576040517f08c379a00000000000000000000000000000000000000000000000000000000081526004016111f190613036565b60405180910390fd5b80600560008573ffffffffffffffffffffffffffffffffffffffff1673ffffffffffffffffffffffffffffffffffffffff16815260200190815260200160002060008473ffffffffffffffffffffffffffffffffffffffff1673ffffffffffffffffffffffffffffffffffffffff16815260200190815260200160002060006101000a81548160ff0219169083151502179055508173ffffffffffffffffffffffffffffffffffffffff168373ffffffffffffffffffffffffffffffffffffffff167f17307eab39ab6107e8899845ad3d59bd9653f200f220920489ca2b5937696c31836040516112eb9190611da2565b60405180910390a3505050565b611303848484610f24565b61130f84848484611852565b61134e576040517f08c379a0000000000000000000000000000000000000000000000000000000008152600401611345906130c8565b60405180910390fd5b50505050565b6060600082141561139c576040518060400160405280600181526020017f300000000000000000000000000000000000000000000000000000000000000081525090506114b0565b600082905060005b600082146113ce5780806113b7906130e8565b915050600a826113c79190613160565b91506113a4565b60008167ffffffffffffffff8111156113ea576113e96120c3565b5b6040519080825280601f01601f19166020018201604052801561141c5781602001600182028036833780820191505090505b5090505b600085146114a9576001826114359190612f60565b9150600a856114449190613191565b60306114509190612f94565b60f81b818381518110611466576114656127fd565b5b60200101907effffffffffffffffffffffffffffffffffffffffffffffffffffffffffffff1916908160001a905350600a856114a29190613160565b9450611420565b8093505050505b919050565b606060008251905060008114156114de5760405180602001604052806000815250915050611648565b600060036002836114ef9190612f94565b6114f99190613160565b600461150591906131c2565b905060006020826115169190612f94565b67ffffffffffffffff81111561152f5761152e6120c3565b5b6040519080825280601f01601f1916602001820160405280156115615781602001600182028036833780820191505090505b50905060006040518060600160405280604081526020016134a7604091399050600181016020830160005b868110156116055760038101905062ffffff818a015116603f8160121c168401518060081b905060ff603f83600c1c1686015116810190508060081b905060ff603f8360061c1686015116810190508060081b905060ff603f831686015116810190508060e01b9050808452600484019350505061158c565b50600386066001811461161f576002811461162f5761163a565b613d3d60f01b600283035261163a565b603d60f81b60018303525b508484525050819450505050505b919050565b600081600001549050919050565b6116758282604051806020016040528060008152506119e9565b5050565b6117138383836040516024016116919392919061321c565b6040516020818303038152906040527f1c7ec448000000000000000000000000000000000000000000000000000000007bffffffffffffffffffffffffffffffffffffffffffffffffffffffff19166020820180517bffffffffffffffffffffffffffffffffffffffffffffffffffffffff838183161783525050505061172e565b505050565b6001816000016000828254019250508190555050565b60008151905060006a636f6e736f6c652e6c6f679050602083016000808483855afa5050505050565b60008073ffffffffffffffffffffffffffffffffffffffff166002600084815260200190815260200160002060009054906101000a900473ffffffffffffffffffffffffffffffffffffffff1673ffffffffffffffffffffffffffffffffffffffff1614159050919050565b600073ffffffffffffffffffffffffffffffffffffffff168373ffffffffffffffffffffffffffffffffffffffff1614611832576040517f08c379a0000000000000000000000000000000000000000000000000000000008152600401611829906132a6565b60405180910390fd5b61183d838383611a44565b505050565b61184d838383611a49565b505050565b60006118738473ffffffffffffffffffffffffffffffffffffffff16611a4e565b156119dc578373ffffffffffffffffffffffffffffffffffffffff1663150b7a0261189c610dce565b8786866040518563ffffffff1660e01b81526004016118be949392919061331b565b602060405180830381600087803b1580156118d857600080fd5b505af192505050801561190957506040513d601f19601f82011682018060405250810190611906919061337c565b60015b61198c573d8060008114611939576040519150601f19603f3d011682016040523d82523d6000602084013e61193e565b606091505b50600081511415611984576040517f08c379a000000000000000000000000000000000000000000000000000000000815260040161197b906130c8565b60405180910390fd5b805181602001fd5b63150b7a0260e01b7bffffffffffffffffffffffffffffffffffffffffffffffffffffffff1916817bffffffffffffffffffffffffffffffffffffffffffffffffffffffff1916149150506119e1565b600190505b949350505050565b6119f38383611a71565b611a006000848484611852565b611a3f576040517f08c379a0000000000000000000000000000000000000000000000000000000008152600401611a36906130c8565b60405180910390fd5b505050565b505050565b505050565b6000808273ffffffffffffffffffffffffffffffffffffffff163b119050919050565b600073ffffffffffffffffffffffffffffffffffffffff168273ffffffffffffffffffffffffffffffffffffffff161415611ae1576040517f08c379a0000000000000000000000000000000000000000000000000000000008152600401611ad8906133f5565b60405180910390fd5b611aea81611757565b15611b2a576040517f08c379a0000000000000000000000000000000000000000000000000000000008152600401611b2190613461565b60405180910390fd5b611b36600083836117c3565b6001600360008473ffffffffffffffffffffffffffffffffffffffff1673ffffffffffffffffffffffffffffffffffffffff1681526020019081526020016000206000828254611b869190612f94565b92505081905550816002600083815260200190815260200160002060006101000a81548173ffffffffffffffffffffffffffffffffffffffff021916908373ffffffffffffffffffffffffffffffffffffffff160217905550808273ffffffffffffffffffffffffffffffffffffffff16600073ffffffffffffffffffffffffffffffffffffffff167fddf252ad1be2c89b69c2b068fc378daa952ba7f163c4a11628f55a4df523b3ef60405160405180910390a4611c4760008383611842565b5050565b828054611c5790612517565b90600052602060002090601f016020900481019282611c795760008555611cc0565b82601f10611c9257805160ff1916838001178555611cc0565b82800160010185558215611cc0579182015b82811115611cbf578251825591602001919060010190611ca4565b5b509050611ccd9190611cd1565b5090565b5b80821115611cea576000816000905550600101611cd2565b5090565b6000604051905090565b600080fd5b600080fd5b60007fffffffff0000000000000000000000000000000000000000000000000000000082169050919050565b611d3781611d02565b8114611d4257600080fd5b50565b600081359050611d5481611d2e565b92915050565b600060208284031215611d7057611d6f611cf8565b5b6000611d7e84828501611d45565b91505092915050565b60008115159050919050565b611d9c81611d87565b82525050565b6000602082019050611db76000830184611d93565b92915050565b600081519050919050565b600082825260208201905092915050565b60005b83811015611df7578082015181840152602081019050611ddc565b83811115611e06576000848401525b50505050565b6000601f19601f8301169050919050565b6000611e2882611dbd565b611e328185611dc8565b9350611e42818560208601611dd9565b611e4b81611e0c565b840191505092915050565b60006020820190508181036000830152611e708184611e1d565b905092915050565b6000819050919050565b611e8b81611e78565b8114611e9657600080fd5b50565b600081359050611ea881611e82565b92915050565b600060208284031215611ec457611ec3611cf8565b5b6000611ed284828501611e99565b91505092915050565b600073ffffffffffffffffffffffffffffffffffffffff82169050919050565b6000611f0682611edb565b9050919050565b611f1681611efb565b82525050565b6000602082019050611f316000830184611f0d565b92915050565b611f4081611efb565b8114611f4b57600080fd5b50565b600081359050611f5d81611f37565b92915050565b60008060408385031215611f7a57611f79611cf8565b5b6000611f8885828601611f4e565b9250506020611f9985828601611e99565b9150509250929050565b600080600060608486031215611fbc57611fbb611cf8565b5b6000611fca86828701611f4e565b9350506020611fdb86828701611f4e565b9250506040611fec86828701611e99565b9150509250925092565b60006020828403121561200c5761200b611cf8565b5b600061201a84828501611f4e565b91505092915050565b61202c81611e78565b82525050565b60006020820190506120476000830184612023565b92915050565b61205681611d87565b811461206157600080fd5b50565b6000813590506120738161204d565b92915050565b600080604083850312156120905761208f611cf8565b5b600061209e85828601611f4e565b92505060206120af85828601612064565b9150509250929050565b600080fd5b600080fd5b7f4e487b7100000000000000000000000000000000000000000000000000000000600052604160045260246000fd5b6120fb82611e0c565b810181811067ffffffffffffffff8211171561211a576121196120c3565b5b80604052505050565b600061212d611cee565b905061213982826120f2565b919050565b600067ffffffffffffffff821115612159576121586120c3565b5b61216282611e0c565b9050602081019050919050565b82818337600083830152505050565b600061219161218c8461213e565b612123565b9050828152602081018484840111156121ad576121ac6120be565b5b6121b884828561216f565b509392505050565b600082601f8301126121d5576121d46120b9565b5b81356121e584826020860161217e565b91505092915050565b6000806000806080858703121561220857612207611cf8565b5b600061221687828801611f4e565b945050602061222787828801611f4e565b935050604061223887828801611e99565b925050606085013567ffffffffffffffff81111561225957612258611cfd565b5b612265878288016121c0565b91505092959194509250565b600067ffffffffffffffff82111561228c5761228b6120c3565b5b61229582611e0c565b9050602081019050919050565b60006122b56122b084612271565b612123565b9050828152602081018484840111156122d1576122d06120be565b5b6122dc84828561216f565b509392505050565b600082601f8301126122f9576122f86120b9565b5b81356123098482602086016122a2565b91505092915050565b600080600080600080600080610100898b03121561233357612332611cf8565b5b600089013567ffffffffffffffff81111561235157612350611cfd565b5b61235d8b828c016122e4565b985050602089013567ffffffffffffffff81111561237e5761237d611cfd565b5b61238a8b828c016122e4565b975050604089013567ffffffffffffffff8111156123ab576123aa611cfd565b5b6123b78b828c016122e4565b965050606089013567ffffffffffffffff8111156123d8576123d7611cfd565b5b6123e48b828c016122e4565b955050608089013567ffffffffffffffff81111561240557612404611cfd565b5b6124118b828c016122e4565b94505060a089013567ffffffffffffffff81111561243257612431611cfd565b5b61243e8b828c016122e4565b93505060c089013567ffffffffffffffff81111561245f5761245e611cfd565b5b61246b8b828c016122e4565b92505060e089013567ffffffffffffffff81111561248c5761248b611cfd565b5b6124988b828c016122e4565b9150509295985092959890939650565b600080604083850312156124bf576124be611cf8565b5b60006124cd85828601611f4e565b92505060206124de85828601611f4e565b9150509250929050565b7f4e487b7100000000000000000000000000000000000000000000000000000000600052602260045260246000fd5b6000600282049050600182168061252f57607f821691505b60208210811415612543576125426124e8565b5b50919050565b7f4552433732313a20617070726f76616c20746f2063757272656e74206f776e6560008201527f7200000000000000000000000000000000000000000000000000000000000000602082015250565b60006125a5602183611dc8565b91506125b082612549565b604082019050919050565b600060208201905081810360008301526125d481612598565b9050919050565b7f4552433732313a20617070726f76652063616c6c6572206973206e6f7420746f60008201527f6b656e206f776e6572206e6f7220617070726f76656420666f7220616c6c0000602082015250565b6000612637603e83611dc8565b9150612642826125db565b604082019050919050565b600060208201905081810360008301526126668161262a565b9050919050565b7f4552433732313a2063616c6c6572206973206e6f7420746f6b656e206f776e6560008201527f72206e6f7220617070726f766564000000000000000000000000000000000000602082015250565b60006126c9602e83611dc8565b91506126d48261266d565b604082019050919050565b600060208201905081810360008301526126f8816126bc565b9050919050565b7f4552433732313a20696e76616c696420746f6b656e2049440000000000000000600082015250565b6000612735601883611dc8565b9150612740826126ff565b602082019050919050565b6000602082019050818103600083015261276481612728565b9050919050565b7f4552433732313a2061646472657373207a65726f206973206e6f74206120766160008201527f6c6964206f776e65720000000000000000000000000000000000000000000000602082015250565b60006127c7602983611dc8565b91506127d28261276b565b604082019050919050565b600060208201905081810360008301526127f6816127ba565b9050919050565b7f4e487b7100000000000000000000000000000000000000000000000000000000600052603260045260246000fd5b600081905092915050565b7f7b226e616d65223a202200000000000000000000000000000000000000000000600082015250565b600061286d600a8361282c565b915061287882612837565b600a82019050919050565b60008190508160005260206000209050919050565b600081546128a581612517565b6128af818661282c565b945060018216600081146128ca57600181146128db5761290e565b60ff1983168652818601935061290e565b6128e485612883565b60005b83811015612906578154818901526001820191506020810190506128e7565b838801955050505b50505092915050565b7f202d2d204e465420233a20000000000000000000000000000000000000000000600082015250565b600061294d600b8361282c565b915061295882612917565b600b82019050919050565b600061296e82611dbd565b612978818561282c565b9350612988818560208601611dd9565b80840191505092915050565b7f222c20226465736372697074696f6e223a202200000000000000000000000000600082015250565b60006129ca60138361282c565b91506129d582612994565b601382019050919050565b7f222c2022696d616765223a2022697066733a2f2f000000000000000000000000600082015250565b6000612a1660148361282c565b9150612a21826129e0565b601482019050919050565b7f222c226174747269627574657322203a205b207b2274726169745f747970652260008201527f3a202273656564222c202276616c756522203a20220000000000000000000000602082015250565b6000612a8860358361282c565b9150612a9382612a2c565b603582019050919050565b7f227d2c7b2274726169745f74797065223a2022686569676874222c202276616c60008201527f756522203a202200000000000000000000000000000000000000000000000000602082015250565b6000612afa60278361282c565b9150612b0582612a9e565b602782019050919050565b7f227d2c7b2274726169745f74797065223a20227769647468222c202276616c7560008201527f6522203a20220000000000000000000000000000000000000000000000000000602082015250565b6000612b6c60268361282c565b9150612b7782612b10565b602682019050919050565b7f227d2c7b2274726169745f74797065223a202267756964616e63655f7363616c60008201527f65222c202276616c756522203a20220000000000000000000000000000000000602082015250565b6000612bde602f8361282c565b9150612be982612b82565b602f82019050919050565b7f227d2c7b2274726169745f74797065223a20227374657073222c202276616c7560008201527f6522203a20220000000000000000000000000000000000000000000000000000602082015250565b6000612c5060268361282c565b9150612c5b82612bf4565b602682019050919050565b7f227d5d7d00000000000000000000000000000000000000000000000000000000600082015250565b6000612c9c60048361282c565b9150612ca782612c66565b600482019050919050565b6000612cbd82612860565b9150612cc9828c612898565b9150612cd482612940565b9150612ce0828b612963565b9150612ceb826129bd565b9150612cf7828a612898565b9150612d0282612a09565b9150612d0e8289612898565b9150612d1982612a7b565b9150612d258288612898565b9150612d3082612aed565b9150612d3c8287612898565b9150612d4782612b5f565b9150612d538286612898565b9150612d5e82612bd1565b9150612d6a8285612898565b9150612d7582612c43565b9150612d818284612898565b9150612d8c82612c8f565b91508190509a9950505050505050505050565b7f646174613a6170706c69636174696f6e2f6a736f6e3b6261736536342c000000600082015250565b6000612dd5601d8361282c565b9150612de082612d9f565b601d82019050919050565b6000612df682612dc8565b9150612e028284612963565b915081905092915050565b7f4552433732313a207472616e736665722066726f6d20696e636f72726563742060008201527f6f776e6572000000000000000000000000000000000000000000000000000000602082015250565b6000612e69602583611dc8565b9150612e7482612e0d565b604082019050919050565b60006020820190508181036000830152612e9881612e5c565b9050919050565b7f4552433732313a207472616e7366657220746f20746865207a65726f2061646460008201527f7265737300000000000000000000000000000000000000000000000000000000602082015250565b6000612efb602483611dc8565b9150612f0682612e9f565b604082019050919050565b60006020820190508181036000830152612f2a81612eee565b9050919050565b7f4e487b7100000000000000000000000000000000000000000000000000000000600052601160045260246000fd5b6000612f6b82611e78565b9150612f7683611e78565b925082821015612f8957612f88612f31565b5b828203905092915050565b6000612f9f82611e78565b9150612faa83611e78565b9250827fffffffffffffffffffffffffffffffffffffffffffffffffffffffffffffffff03821115612fdf57612fde612f31565b5b828201905092915050565b7f4552433732313a20617070726f766520746f2063616c6c657200000000000000600082015250565b6000613020601983611dc8565b915061302b82612fea565b602082019050919050565b6000602082019050818103600083015261304f81613013565b9050919050565b7f4552433732313a207472616e7366657220746f206e6f6e20455243373231526560008201527f63656976657220696d706c656d656e7465720000000000000000000000000000602082015250565b60006130b2603283611dc8565b91506130bd82613056565b604082019050919050565b600060208201905081810360008301526130e1816130a5565b9050919050565b60006130f382611e78565b91507fffffffffffffffffffffffffffffffffffffffffffffffffffffffffffffffff82141561312657613125612f31565b5b600182019050919050565b7f4e487b7100000000000000000000000000000000000000000000000000000000600052601260045260246000fd5b600061316b82611e78565b915061317683611e78565b92508261318657613185613131565b5b828204905092915050565b600061319c82611e78565b91506131a783611e78565b9250826131b7576131b6613131565b5b828206905092915050565b60006131cd82611e78565b91506131d883611e78565b9250817fffffffffffffffffffffffffffffffffffffffffffffffffffffffffffffffff048311821515161561321157613210612f31565b5b828202905092915050565b600060608201905081810360008301526132368186611e1d565b90506132456020830185612023565b6132526040830184611f0d565b949350505050565b7f4572723a20746f6b656e20697320534f554c20424f554e440000000000000000600082015250565b6000613290601883611dc8565b915061329b8261325a565b602082019050919050565b600060208201905081810360008301526132bf81613283565b9050919050565b600081519050919050565b600082825260208201905092915050565b60006132ed826132c6565b6132f781856132d1565b9350613307818560208601611dd9565b61331081611e0c565b840191505092915050565b60006080820190506133306000830187611f0d565b61333d6020830186611f0d565b61334a6040830185612023565b818103606083015261335c81846132e2565b905095945050505050565b60008151905061337681611d2e565b92915050565b60006020828403121561339257613391611cf8565b5b60006133a084828501613367565b91505092915050565b7f4552433732313a206d696e7420746f20746865207a65726f2061646472657373600082015250565b60006133df602083611dc8565b91506133ea826133a9565b602082019050919050565b6000602082019050818103600083015261340e816133d2565b9050919050565b7f4552433732313a20746f6b656e20616c7265616479206d696e74656400000000600082015250565b600061344b601c83611dc8565b915061345682613415565b602082019050919050565b6000602082019050818103600083015261347a8161343e565b905091905056fe416e204e465420772f20494420257320686173206265656e206d696e74656420746f2025734142434445464748494a4b4c4d4e4f505152535455565758595a6162636465666768696a6b6c6d6e6f707172737475767778797a303132333435363738392b2fa2646970667358221220acfa5e73f498aa55f6f6d4480000f99cda73cd270a40cc6092c4b57939492b0e64736f6c63430008090033",
    "linkReferences": {},
    "deployedLinkReferences": {}
}